{
  "transactions": [
    {
      "hash": "0xce36c7bd6778e6d29e512d2dfa419a845c4ed08e27ae69b5f0386f94fcbfc6f9",
      "transactionType": "CALL",
      "contractName": null,
      "contractAddress": "0x609ccd6242ae01faab1f2b9093940a35db0f202c",
      "function": "approve(address,uint256)",
      "arguments": [
        "0x432891844dD3215844B47827d5A6581c4Cb72378",
        "2000000"
      ],
      "transaction": {
        "from": "0x12b2434a1022d5787bf06056f2885fe35de62bf8",
        "to": "0x609ccd6242ae01faab1f2b9093940a35db0f202c",
        "gas": "0xf7ca",
        "value": "0x0",
        "input": "0x095ea7b3000000000000000000000000432891844dd3215844b47827d5a6581c4cb7237800000000000000000000000000000000000000000000000000000000001e8480",
        "nonce": "0x170",
        "chainId": "0x14a34"
      },
      "additionalContracts": [],
      "isFixedGasLimit": false
    },
    {
      "hash": "0x190c1d0a3ef4108503fedc679b41d7e8760dd615deaf49cb700b82511990e3ba",
      "transactionType": "CALL",
      "contractName": null,
      "contractAddress": "0x432891844dd3215844b47827d5a6581c4cb72378",
      "function": "addLiquidity(address,address,uint24,int24,int24,uint256,uint256)",
      "arguments": [
        "0x609cCd6242ae01FaaB1f2B9093940a35DB0F202c",
        "0x036CbD53842c5426634e7929541eC2318f3dCF7e",
        "300",
        "-887220",
        "887220",
        "2000000",
        "0"
      ],
      "transaction": {
        "from": "0x12b2434a1022d5787bf06056f2885fe35de62bf8",
        "to": "0x432891844dd3215844b47827d5a6581c4cb72378",
        "gas": "0x547a3",
        "value": "0x0",
        "input": "0xcc378b4f000000000000000000000000609ccd6242ae01faab1f2b9093940a35db0f202c000000000000000000000000036cbd53842c5426634e7929541ec2318f3dcf7e000000000000000000000000000000000000000000000000000000000000012cfffffffffffffffffffffffffffffffffffffffffffffffffffffffffff2764c00000000000000000000000000000000000000000000000000000000000d89b400000000000000000000000000000000000000000000000000000000001e84800000000000000000000000000000000000000000000000000000000000000000",
        "nonce": "0x171",
        "chainId": "0x14a34"
      },
      "additionalContracts": [],
      "isFixedGasLimit": false
    }
  ],
  "receipts": [
    {
      "status": "0x1",
      "cumulativeGasUsed": "0x1f7adf",
      "logs": [
        {
          "address": "0x609ccd6242ae01faab1f2b9093940a35db0f202c",
          "topics": [
            "0x8c5be1e5ebec7d5bd14f71427d1e84f3dd0314c0f7b2291e5b200ac8c7c3b925",
            "0x00000000000000000000000012b2434a1022d5787bf06056f2885fe35de62bf8",
            "0x000000000000000000000000432891844dd3215844b47827d5a6581c4cb72378"
          ],
          "data": "0x00000000000000000000000000000000000000000000000000000000001e8480",
          "blockHash": "0x84581f72cf314ca6ac7823b6d4cd97ced08560044eac72dd1aefe44d15bb65a3",
          "blockNumber": "0x107559a",
          "transactionHash": "0xce36c7bd6778e6d29e512d2dfa419a845c4ed08e27ae69b5f0386f94fcbfc6f9",
          "transactionIndex": "0xb",
          "logIndex": "0x19",
          "removed": false
        }
      ],
      "logsBloom": "0x00000000000000000000000000000000000000000000000000000000000000000000000000000000000000000000000000000000000000000080000000200000000000000000000000000000200000000000000000000000000000100000000000000000000000000000000000000000000000000000000400000000000000000000000000000000000000000000000000000000000002000000000000000010020000000000000000000000000000000000000400000000800000000000000000000000000000000000000000000000000000000000000000000000000000000010000000000000000000000000000000000000000000000000000000000000",
      "type": "0x2",
      "transactionHash": "0xce36c7bd6778e6d29e512d2dfa419a845c4ed08e27ae69b5f0386f94fcbfc6f9",
      "transactionIndex": "0xb",
      "blockHash": "0x84581f72cf314ca6ac7823b6d4cd97ced08560044eac72dd1aefe44d15bb65a3",
      "blockNumber": "0x107559a",
      "gasUsed": "0xb366",
      "effectiveGasPrice": "0xf4429",
      "from": "0x12b2434a1022d5787bf06056f2885fe35de62bf8",
      "to": "0x609ccd6242ae01faab1f2b9093940a35db0f202c",
      "contractAddress": null,
      "l1BaseFeeScalar": "0x44d",
      "l1BlobBaseFee": "0x2",
      "l1BlobBaseFeeScalar": "0xa118b",
      "l1Fee": "0xe5b39ae1",
      "l1GasPrice": "0x8264cab9",
      "l1GasUsed": "0x640"
    },
    {
      "status": "0x1",
      "cumulativeGasUsed": "0x231712",
      "logs": [
        {
          "address": "0x609ccd6242ae01faab1f2b9093940a35db0f202c",
          "topics": [
            "0xddf252ad1be2c89b69c2b068fc378daa952ba7f163c4a11628f55a4df523b3ef",
            "0x00000000000000000000000012b2434a1022d5787bf06056f2885fe35de62bf8",
            "0x000000000000000000000000432891844dd3215844b47827d5a6581c4cb72378"
          ],
          "data": "0x00000000000000000000000000000000000000000000000000000000001e8480",
          "blockHash": "0x84581f72cf314ca6ac7823b6d4cd97ced08560044eac72dd1aefe44d15bb65a3",
          "blockNumber": "0x107559a",
          "transactionHash": "0x190c1d0a3ef4108503fedc679b41d7e8760dd615deaf49cb700b82511990e3ba",
          "transactionIndex": "0xc",
          "logIndex": "0x1a",
          "removed": false
        },
        {
          "address": "0x036cbd53842c5426634e7929541ec2318f3dcf7e",
          "topics": [
            "0xddf252ad1be2c89b69c2b068fc378daa952ba7f163c4a11628f55a4df523b3ef",
            "0x00000000000000000000000012b2434a1022d5787bf06056f2885fe35de62bf8",
            "0x000000000000000000000000432891844dd3215844b47827d5a6581c4cb72378"
          ],
          "data": "0x0000000000000000000000000000000000000000000000000000000000000000",
          "blockHash": "0x84581f72cf314ca6ac7823b6d4cd97ced08560044eac72dd1aefe44d15bb65a3",
          "blockNumber": "0x107559a",
          "transactionHash": "0x190c1d0a3ef4108503fedc679b41d7e8760dd615deaf49cb700b82511990e3ba",
          "transactionIndex": "0xc",
          "logIndex": "0x1b",
          "removed": false
        },
        {
          "address": "0x432891844dd3215844b47827d5a6581c4cb72378",
          "topics": [
            "0xaa71f87fd258ac1983edddd5fcd3d65ba91ac91719490ac46989e850a03cf0b2",
            "0x000000000000000000000000609ccd6242ae01faab1f2b9093940a35db0f202c",
            "0x000000000000000000000000036cbd53842c5426634e7929541ec2318f3dcf7e"
          ],
          "data": "0x",
          "blockHash": "0x84581f72cf314ca6ac7823b6d4cd97ced08560044eac72dd1aefe44d15bb65a3",
          "blockNumber": "0x107559a",
          "transactionHash": "0x190c1d0a3ef4108503fedc679b41d7e8760dd615deaf49cb700b82511990e3ba",
          "transactionIndex": "0xc",
          "logIndex": "0x1c",
          "removed": false
        },
        {
          "address": "0x432891844dd3215844b47827d5a6581c4cb72378",
          "topics": [
            "0x2db8fc28326a114fe00f000205e13b79bbdeaeae6568b34ccf9fe0991da2285e",
            "0x00000000000000000000000012b2434a1022d5787bf06056f2885fe35de62bf8",
            "0x000000000000000000000000609ccd6242ae01faab1f2b9093940a35db0f202c",
            "0x000000000000000000000000036cbd53842c5426634e7929541ec2318f3dcf7e"
          ],
          "data": "0x00000000000000000000000000000000000000000000000000000000001e8480",
          "blockHash": "0x84581f72cf314ca6ac7823b6d4cd97ced08560044eac72dd1aefe44d15bb65a3",
          "blockNumber": "0x107559a",
          "transactionHash": "0x190c1d0a3ef4108503fedc679b41d7e8760dd615deaf49cb700b82511990e3ba",
          "transactionIndex": "0xc",
          "logIndex": "0x1d",
          "removed": false
        }
      ],
      "logsBloom": "0x20000000040000000000000000000000000000000000000000000000000000000000000000000000000000000000000000000100000000000080000000000000000000000000000002000008200000000000000000400000000000100000000800000000000000000000000000000000000001040000000400000010000000000000000040000000000000000000000000000000000002000000000000000090000000000000000000000800000000000000000400000000900000000000000000000002000000008000000000000000001000000000000000000000000000000000000000000000000000100060000000000000000000001000000000000000",
      "type": "0x2",
      "transactionHash": "0x190c1d0a3ef4108503fedc679b41d7e8760dd615deaf49cb700b82511990e3ba",
      "transactionIndex": "0xc",
      "blockHash": "0x84581f72cf314ca6ac7823b6d4cd97ced08560044eac72dd1aefe44d15bb65a3",
      "blockNumber": "0x107559a",
      "gasUsed": "0x39c33",
      "effectiveGasPrice": "0xf4429",
      "from": "0x12b2434a1022d5787bf06056f2885fe35de62bf8",
      "to": "0x432891844dd3215844b47827d5a6581c4cb72378",
      "contractAddress": null,
      "l1BaseFeeScalar": "0x44d",
      "l1BlobBaseFee": "0x2",
      "l1BlobBaseFeeScalar": "0xa118b",
      "l1Fee": "0x137732942",
      "l1GasPrice": "0x8264cab9",
      "l1GasUsed": "0x879"
    }
  ],
  "libraries": [],
  "pending": [],
  "returns": {},
  "timestamp": 1730284059,
  "chain": 84532,
  "commit": "fa82387"
}